:020000040000fa
:080000000001040000000000f3
:020000040000fa
:100008009401000094010000940100009401000094
:100018009401000094010000940100009401000084
:100028009401000094010000940100009401000074
:100038009401000094010000940100009401000064
:10004800940100005802000094010000940100008f
:100058009401000094010000940100009401000044
:100068009401000094010000940100009401000034
:100078009401000094010000940100009401000024
:100088009401000094010000940100009401000014
:100098009401000094010000940100009401000004
:1000a80094010000940100009401000094010000f4
:1000b80094010000940100009401000094010000e4
:1000c80094010000940100009401000094010000d4
:1000d80094010000940100009401000094010000c4
:1000e80094010000940100009401000094010000b4
:0800f8009401000094010000d6
:020000040000fa
:100108009401000094010000940100009401000093
:100118009401000094010000940100009401000083
:100128009401000094010000940100009401000073
:100138009401000094010000940100009401000063
:10014800940100005802000094010000940100008e
:100158009401000094010000940100009401000043
:100168009401000094010000940100009401000033
:100178009401000094010000940100009401000023
:100188009401000094010000940100009401000013
:100198009401000094010000940100009401000003
:1001a80094010000940100009401000094010000f3
:1001b80094010000940100009401000094010000e3
:1001c80094010000940100009401000094010000d3
:1001d80094010000940100009401000094010000c3
:1001e80094010000940100009401000094010000b3
:0801f8009401000094010000d5
:020000040000fa
:10020000ef8220000eff20000e0188000000000099
:1002100000012000200288000c0007004039200067
:100220000100200011000700000020000000e00095
:10023000020032000000020000000000ce020200b6
:10024000000000000040da000000fe004440a90069
:10025000600520000000e0000300320000002000e4
:10026000a00188004440a800000006009101880019
:10027000800078000000eb0015003700e2804000ad
:1002800032a0b4009101ba00e280400032a0b40074
:100290009102ba00e280400032a0b4000002eb00fc
:1002a000472bde00f507b200602ce10004003a00a5
:1002b0000059eb008301e900fdff3e000400370018
:1002c0006128e100010032000082eb000400070019
:1002d0001101ba000200e000e8ff3a000000060049
:1002e0003159ba008301e9000c0032002159ba00eb
:1002f0008301e900080032000400e00003003a0036
:10030000e280400032a0b400f5ff370011d9ba00f6
:100310008301e900faff3a008100e800e180400033
:1003200032a0b400000006000040da000000fe0029
:1003300001002000504188006141880015c0b300d1
:1003400084822000054a7800000006008482200094
:100350008042eb0094cf120002003a00100020000f
:10036000f3ff0700d2e62400631c24005041800004
:100370006141800010000700940323000500200065
:100380000002420081824a00544188006541880091
:100390000500780000f0a1000000060000027800cf
:1003a0008042eb00b4cf1200fdff3a000080ea006b
:1003b0000000420000000600020ab900001bb9005c
:1003c0000200b800810042008100430000000600e6
:020000040000fa
:1003d0006c6f00006e6400006f6e00000073000020
:1003e00061720000616a0000657600006f00000025
:1003f000616d0000737400006572000064610000ac
:100400006d0000006d6900006c6100006e0000006e
:1004100068610000670000006e6900007300000062
:100420006b72000061670000756a0000657600006d
:1004300061630000006b0000726100006c6a0000e4
:10044000657600006f00000073750000626f0000a9
:100450007469000063610000006d00006f730000ac
:100460006b76000061000000476100006d650000d0
:0c047000204f00007665000072000000c4
:020000040000fa
:10047c000000fa0004042000a41088000d42a8001b
:10048c008d20a80075108000c4ff2f00048262002c
:10049c00741088000de2a8000f42a8000080fa003a
:1004ac0000000600801f7800841f78003400f800dc
:1004bc0000002000a00188000000fa008520a9009f
:1004cc0094108000044278000440780016e8b700cd
:1004dc006481200014427800e04f52000400320086
:1004ec0064812000144278000482fb0024418800bf
:1004fc000080fa003400f9004f0278004f007800b9
:10050c00004006000200fa00000f78000000000016
:10051c00751080000410200004826200e00f52006d
:10052c00fbff32006410800066026200e60f52008e
:10053c0003003a001e027800841088000300370084
:10054c00f40f20001e026200841088000080fa0064
:10055c00000006000000fa00881f780000047800f4
:10056c0005003700184278000402fb0004007800f4
:10057c00e4ff07000804e80018427800e04f52003e
:10058c00f8ff3a004f0478000080fa0000000600e3
:10059c000400fa00000f780011079800b4ff070060
:1005ac0067ff070000027800a50020001100090079
:1005bc000502d80001027800044188000441800043
:1005cc00840242002480200004824200140278003d
:1005dc00040078006eff07000002780014418800c8
:1005ec000002eb00c440880008003700c5408000c2
:1005fc006482200084824200f4c5b300844a7800ef
:10060c00c44080000402e800c4408800c54080005b
:10061c0014418000848f5200f4ff39006082200066
:10062c00ccff07000000000024418000e00f5200c6
:10063c00fdff320014002000f44088000002eb00a3
:10064c00c44088001b003700c44080008402420074
:10065c0024802000048242001402780014427800a6
:10066c008402fb0024418000848f52000e003a006b
:10067c00c640800004418000840242002480200097
:10068c000482420094027800c4408000048242003c
:10069c00144278006582200085024300844a780069
:1006ac000002eb00f4408800c44080000402e80023
:1006bc00c4408800c4408000e60f5200e2ff3600c0
:1006cc00f4408000e10f520003003a000440800027
:1006dc000402e9000440880004408000e00f52004e
:1006ec000b003a0004418000840242002480200068
:1006fc0004824200140278000400780095ff070081
:10070c004023280093ff0700640020000440880069
:0c071c000002eb0024418800c0ff370001
:020000040000fa
:100728001608000012000000000000000008000089
:1007380016000000020000000600e80081ef8100ba
:10074800f8810200820882000c821000821b82005d
:1007580024822d0082000000280800000600000006
:08076800000000000000000089
:020000040000fa
:0200000401f009
:04000000e5bf000058
:020000040000fa
:0200000401f009
:04000400ff7f00007a
:00000001FF
