:020000040000fa
:080000000001040000000000f3
:020000040000fa
:100008009401000094010000940100009401000094
:100018009401000094010000940100009401000084
:100028009401000094010000940100009401000074
:100038009401000094010000940100009401000064
:1000480094010000080200009401000094010000df
:100058009401000094010000940100009401000044
:100068009401000094010000940100009401000034
:100078009401000094010000940100009401000024
:100088009401000094010000940100009401000014
:100098009401000094010000940100009401000004
:1000a80094010000940100009401000094010000f4
:1000b80094010000940100009401000094010000e4
:1000c80094010000940100009401000094010000d4
:1000d80094010000940100009401000094010000c4
:1000e80094010000940100009401000094010000b4
:0800f8009401000094010000d6
:020000040000fa
:100108009401000094010000940100009401000093
:100118009401000094010000940100009401000083
:100128009401000094010000940100009401000073
:100138009401000094010000940100009401000063
:1001480094010000080200009401000094010000de
:100158009401000094010000940100009401000043
:100168009401000094010000940100009401000033
:100178009401000094010000940100009401000023
:100188009401000094010000940100009401000013
:100198009401000094010000940100009401000003
:1001a80094010000940100009401000094010000f3
:1001b80094010000940100009401000094010000e3
:1001c80094010000940100009401000094010000d3
:1001d80094010000940100009401000094010000c3
:1001e80094010000940100009401000094010000b3
:0801f8009401000094010000d5
:020000040000fa
:100200004f8f20000eff20000e018800000000002c
:1002100000012000200288000c000700403c200064
:100220000100200011000700000020000000e00095
:100230000200320000000200000000008a020200fa
:10024000000000000040da000000fe004440a90069
:10025000400120000000e000030032000000200008
:10026000a00188004440a800000006009101880019
:10027000800078000000eb0015003700e2804000ad
:1002800032a0b4009101ba00e280400032a0b40074
:100290009102ba00e280400032a0b4000002eb00fc
:1002a000472bde00f507b200602ce10004003a00a5
:1002b0000059eb008301e900fdff3e000400370018
:1002c0006128e100010032000082eb000400070019
:1002d0001101ba000200e000e8ff3a000000060049
:1002e0003159ba008301e9000c0032002159ba00eb
:1002f0008301e900080032000400e00003003a0036
:10030000e280400032a0b400f5ff370011d9ba00f6
:100310008301e900faff3a008100e800e180400033
:1003200032a0b400000006000040da000000fe0029
:1003300001002000804788009147880015c0b30065
:10034000e48e2000054a780000000600e48e2000bc
:100350008042eb0094cf120002003a00100020000f
:10036000f3ff0700d2e62400631c240080478000ce
:100370009147800009000700940323000500200036
:100380000002420081824a00844788009547880025
:100390000500780000f0a10000000600020ab90084
:1003a000001bb9000200b800810042008100430038
:0403b0000000060043
:020000040000fa
:1003b400474100004d450000204f00005645000015
:1003c4005200000052650000736500006e6a000070
:0803d400653a00002000000062
:020000040000fa
:1003dc000000fa0004042000a41088000d42a800bc
:1003ec008d20a80075108000c4ff2f0004826200cd
:1003fc00741088000de2a8000f42a8000080fa00db
:10040c0000000600801f7800849fbe003400f800b6
:10041c0000002000a00188000000fa008520a9003f
:10042c00941080000442780004407800cae8b700b9
:10043c00a58c20009542780004c6b30084cf5200ee
:10044c0009003600a58c200095427800a4c7b300a3
:10045c0084cf520004003e00a48c2000144278008b
:10046c000482fb00c44688000080fa003400f900c6
:10047c004f02be004f007800004006000200fa0058
:10048c00000f7800000000007510800004102000a0
:10049c0004826200e00f5200fbff32006410800007
:1004ac0066026200e60f520003003a001e0278005a
:1004bc008410880003003700f40f20001e02620035
:1004cc00841088000080fa00000006000000fa008a
:1004dc00881f780000047800050037001842780067
:1004ec000402fb0004007800e4ff07000804e800a5
:1004fc0018427800e04f5200f8ff3a004f047800a1
:10050c000080fa00000006000400fa00000f7800da
:10051c0011079800aeff070089ff07000002780062
:10052c00a5002000110009000502d8000102780086
:10053c00a44688000002eb00b44688000300370094
:10054c00b44680000402e800b4468800a44680004b
:10055c00b64680007422b90004027800860242007c
:10056c00248020000482420014427800e04f5200a4
:10057c00f3ff3a000002eb006446880008003700e5
:10058c0065468000a48d200084824200f4c5b3002f
:10059c00844a7800644680000402e80064468800bf
:1005ac0065468000b4468000848f5200f4ff390009
:1005bc00a08d2000c5ff0700d0002000afff070072
:1005cc0000000000c4468000e00f5200fdff320026
:1005dc0014002000944688000002eb00644688005a
:1005ec001d003700a4468000664680007422b900c6
:1005fc00040278008602420024802000048242001b
:10060c00144278008402fb00c4468000848f5200a0
:10061c000e003a0066468000a446800067468000c3
:10062c007422b90004027800870242002480200062
:10063c000482420014427800a58d200085024300fc
:10064c00844a78000002eb009446880064468000df
:10065c000402e8006446880065468000b4468000c9
:10066c00848f5200dfff390094468000e10f520066
:10067c0003003a00044080000402e90004408800b2
:10068c0004408000e00f520039003a00a01d280001
:10069c008eff0700d000200078ff0700401e2800c6
:1006ac008aff070026802000a44680007422b9002f
:1006bc0004027800040243000400780083ff070062
:1006cc00d00020006dff0700d00020006bff07005a
:1006dc00640020000440880019ff07000002780025
:1006ec00a5002000110009000502d80001027800c5
:1006fc00a44688000002eb00b446880003003700d3
:10070c00b44680000402e800b4468800a446800089
:10071c00b64680007422b9000402780086024200ba
:10072c00248020000482420014427800e04f5200e2
:10073c00f3ff3a000002eb00644688000800370023
:10074c0065468000a48d200084824200f4c5b3006d
:10075c00844a7800644680000402e80064468800fd
:10076c0065468000b4468000848f5200f4ff390047
:0c077c000002eb00c44688008dff37002f
:020000040000fa
:10078800ca08000024000000000000000008000063
:10079800ca0000000200000006006c006f6e6400d2
:1007a8006f6e000000000000000000000000000064
:1007b800000000000073610072616a0065766f00d6
:1007c8000000000000000000000000000000000021
:1007d800616d73007465720064616d000000000053
:1007e800000000000000000000006d00696c61005e
:1007f8006e00000000000000000000000000000083
:1008080000000000006861006700000000000000b0
:1008180000000000000000000000000000000000d0
:100828006e69730000000000000000000000000076
:10083800000000000000000000006b00726167000b
:10084800756a650076616300000000000000000022
:1008580000000000006b7200616c6a0065766f0032
:100868000000000000000000000000000000000080
:10087800736b750072626c0061000000000000007c
:1008880000000000000000000000700061726900b4
:100898007a000000000000000000000000000000d6
:1008a8000000000000000000ee0800000600000044
:0808b800000000000000000038
:020000040000fa
:0200000401f009
:04000000e5bf000058
:020000040000fa
:0200000401f009
:04000400ff7f00007a
:00000001FF
